:100000000C9467080C9498080C9498080C94980821
:100010000C9498080C9498080C9498080C949808E0
:100020000C9498080C9498080C9498080C949808D0
:100030000C9498080C9498080C9498080C949808C0
:100040000C9498080C9498080C9498080C949808B0
:100050000C9498080C9498080C9498080C9405211A
:100060000C9498080C941A1F0C94F01E0C94980889
:100070000C9498080C9498080C9498080C94980880
:100080000C9498080C9498080C9498080C94980870
:100090000C9498080C9498080C9498080C94980860
:1000A0000C9498080C9498080C9498080C94980850
:1000B0000C9498080C9498080C9498080C94980840
:1000C0000C9498080C9498080C9498080C94980830
:1000D0000C9498080C9498080C9498080C94980820
:1000E0000C9498089411971186118A118E11CE11D3
:1000F0009B119F11A511A911AD11B311B711BB111E
:10010000CE11C111C511C9110C948A110C949F1103
:100110000C943E0A0C94731C0C9497110C948C2A2A
:100120000C94B91F0C94851C0C94A71C0C9494116E
:100130000C94C1110C94C9110C9486110C949B1150
:100140000C94DF1C0C94C5110C94991C0C94990D03
:100150000C94AD080C94C8150C949A1F0C94B31110
:100160000C94481C0C94761C0C94BB110C949A08AB
:100170000C94891F0C94B7110C94871D0C943609AC
:100180000C948A1F0C94C8100C942C1D0C94D70846
:100190000C94A61F0C94B21F0C94A5110C94A911D9
:1001A0000C94AD110C94721C0C94CE110C948E1105
:1001B0000C945E0D11007F96290001007F962800A7
:1001C0003A0155C0021010C10141C504002280400F
:1001D000360168B00100B102B011B40102B60302E9
:1001E000023BB701C63A0155F704A9512C82C0025F
:1001F0000D0DC1024300C20100C50400480048B40F
:100200000100B60302023BE00F0F211C0B0E084950
:100210009838091103141000E10F0F2F2B0C0E0654
:10022000477637071104231E00B00100B304020013
:100230000000B40100D003074218D103000710D218
:10024000020102D3020102D4020102C005123B00E6
:100250000211C103101088C50103C60102C80C00B9
:100260003236450616377577540C00CC0100F6037C
:10027000010100CF03008130ED0464031281E80323
:10028000851078CB05392C003402F70120EA0200F2
:1002900000B00100B102001BB40100C00121C10186
:1002A00011C5023F3CC701B5360148F201002601E5
:1002B00001E00F0F26240B0E0954A8460C17090F56
:1002C0000700E10F00191B0410072A47390306062F
:1002D00030380F360100B00100C10410100202C016
:1002E00006003500000102C50104D2020104CA0162
:1002F00000EA0180B903FF83577F967F96B60125F8
:10030000C0065050013C1E08B4070240002A2A0DC6
:10031000787F01F20B161603080808081004161659
:10032000FD03110235B2050C0C003333B70135BBA8
:10033000012BC00104C20201FFC30111C40120C688
:10034000010FD002A4A1E00ED000050E150D374319
:10035000470915121619E10ED000050D0C062D44A3
:10036000400E1C1816193A01557F0AB00103E2012C
:100370003FC00122E20100B00100C0010AB001004B
:10038000000000000000000000000000000000006D
:10039000FFFF0F0000040062080008080003000CC3
:1003A00001030B5A02030609030317100403002379
:1003B00005030017060309630703090C08030C1063
:1003C0000903322210001600110001011200000082
:1003D0001300010000013003010137020301000D89
:1003E000800200610201B0C1FFFF32000100000184
:1003F0000200000103003010090001000C000000A1
:10040000900000800F000000100200001102EF00B9
:100410001202000013028F01000500000105000018
:1004200002055F000104010004040000FFFF320028
:1004300007000001FFFF320000020000010200007F
:1004400000000000000000000000000000000100AB
:10045000A4000100FFFF0A00600000270800080850
:100460003000140231001537320004063300160E36
:1004700034001122350000153600078537000714B7
:1004800038000314390020009000150010001004FB
:1004900011003702290046002A004600070000002C
:1004A0001200890113000011FFFF96001200B9012C
:1004B00001000001020000020300301009000100E9
:1004C0000A0000000D0000000E0030006100010075
:1004D0006A000000800000008100000082005F00D0
:1004E0009200000193000107FFFF50000700000188
:1004F000E500F07801000001020000020300301066
:1005000004000000050000000800070209000000C8
:100510000A0000000C0000000D0000000F000000A9
:10052000100000001100070012000000130000007E
:1005300007000100FFFFC8001000901611002702FD
:10054000FFFF320012000D00FFFF32001300001207
:1005500029000A002B000D00FFFF320020000000E0
:1005600021000000300000003100040432000300CC
:100570003500050436000808370007043800030377
:10058000390007073C0004053D000808600000270B
:10059000610001006A00000080000000810000008E
:1005A000820000008300000084000000850000003D
:1005B000900010009200000007003301E500008069
:1005C00000000100010000010200000703003010DC
:1005D0000400000008000202090000000A000000F8
:1005E0000C0000000D0000000F00000010000000D3
:1005F000110007001200000013000000FFFF32008E
:100600001000B01711000700FFFF0A0012003A01A6
:10061000FFFF0A001300001A29000C00FFFF0A0068
:1006200030000000310005053200040035000600EE
:1006300036000707370005013800020039000707B8
:100640003C0004073D000708600000A761000100AE
:100650006A0000002100000020000000800000006F
:100660008100000082000000830000008400000080
:10067000850000009000100092000000930003002D
:10068000950010019700000098000000070073011A
:10069000FFFF3200FF000100F3000800000001002E
:1006A00001000001020000070300301008000203EF
:1006B00009000000100000001100070012000000F7
:1006C00013000000FFFF32001000B014FFFF0A000B
:1006D00011000700FFFF0A0012008E001300000C3B
:1006E00029001500FFFF0A0030000000310007015B
:1006F000320000003500030236000204370000001B
:1007000038000702390000003C0003023D000304EA
:10071000600000A76100010090002900070033017C
:10072000FFFF3200150030009A0010001100200079
:10073000100028341200020013003810FFFF2800B8
:1007400012001200FFFF2800100020341300453073
:10075000FFFF4600300000003100020432000703B2
:100760003300040334000400350001043600070799
:10077000370005033800100639001006010000019B
:100780000200000303003010080008080A000800F7
:10079000600000276100010090003E01920000010E
:1007A00093000001A0000030A3001000070001002A
:1007B0000700210007002300070033000700330172
:1007C00011001A001200213113006C00140049427C
:1007D00010000008FFFF0A0011001A01FFFF0A00C5
:1007E00011001A03FFFF0A0011001A07FFFF0A0099
:1007F00011001A0FFFFF0A0011003A0FFFFF1E0041
:10080000010028010200000103003010070012104F
:10081000080003030B0000110C0000000F0001187A
:100820001500200050000101510003065200080489
:10083000530000005400050655000604560003034B
:100840005700030358001000590000100700120061
:10085000FFFF280007001300070017006D61746395
:1008600068657320746865207475746F7269616C53
:100870002E00416C736F206966207573696E672066
:1008800074686520627265616B6F75742C20646F8B
:1008900075626C652D636865636B20746861742094
:1008A000616C6C20776972696E67004966207573A8
:1008B000696E672074686520627265616B6F75741C
:1008C00020626F6172642C2069742073686F756C8C
:1008D00064204E4F542062652023646566696E650E
:1008E00064210073686F756C64206170706561725B
:1008F00020696E20746865206C696272617279206B
:100900006865616465722028456C65676F6F5F5428
:1009100046542E68292E00202023646566696E6582
:10092000205553455F456C65676F6F5F5348494578
:100930004C445F50494E4F555400496620757369C9
:100940006E672074686520456C65676F6F20322E76
:100950003822205446542041726475696E6F2073AA
:100960006869656C642C20746865206C696E653AF2
:1009700000556E6B6E6F776E204C43442064726935
:1009800076657220636869703A2000466F756E6400
:1009900020307839333431204C43442064726976F6
:1009A000657200466F756E64204858383335374499
:1009B000204C43442064726976657200466F756E00
:1009C0006420494C4939333431204C43442064720B
:1009D0006976657200466F756E6420485838333406
:1009E0003747204C43442064726976657200466F35
:1009F000756E64204C47445034353335204C4344A5
:100A00002064726976657200466F756E6420494C89
:100A10004939333238204C43442064726976657218
:100A200000466F756E6420494C4939333235204C8D
:100A3000434420647269766572005573696E67205D
:100A4000456C65676F6F20322E3822205446542043
:100A5000427265616B6F757420426F6172642050E1
:100A6000696E6F7574005573696E6720456C6567B4
:100A70006F6F20322E382220544654204272656116
:100A80006B6F757420426F6172642050696E6F7570
:100A90007400544654204C434420746573740053CE
:100AA000657475702053637265656E000000000008
:100AB000003E5B4F5B3E3E6B4F6B3E1C3E7C3E1CE4
:100AC000183C7E3C181C577D571C1C5E7F5E1C002A
:100AD000183C1800FFE7C3E7FF0018241800FFE7E1
:100AE000DBE7FF30483A060E2629792926407F05A4
:100AF0000507407F05253F5A3CE73C5A7F3E1C1CBA
:100B000008081C1C3E7F14227F22145F5F005F5F79
:100B100006097F017F006689956A60606060609465
:100B2000A2FFA29408047E040810207E201008086A
:100B30002A1C08081C2A08081E101010100C1E0C75
:100B40001E0C30383E3830060E3E0E060000000007
:100B50000000005F00000007000700147F147F14EE
:100B6000242A7F2A12231308646236495620500033
:100B700008070300001C2241000041221C002A1C1F
:100B80007F1C2A08083E080800807030000808080A
:100B90000808000060600020100804023E5149452A
:100BA0003E00427F400072494949462141494D3348
:100BB0001814127F1027454545393C4A49493141AF
:100BC000211109073649494936464949291E00007D
:100BD00014000000403400000008142241141414D2
:100BE0001414004122140802015909063E415D59BE
:100BF0004E7C1211127C7F494949363E41414122C7
:100C00007F4141413E7F494949417F090909013EF0
:100C1000414151737F0808087F00417F4100204017
:100C2000413F017F081422417F404040407F021C29
:100C3000027F7F0408107F3E4141413E7F09090940
:100C4000063E4151215E7F0919294626494949320C
:100C500003017F01033F4040403F1F2040201F3FD2
:100C60004038403F63140814630304780403615957
:100C7000494D43007F414141020408102000414199
:100C8000417F040201020440404040400003070845
:100C90000020545478407F28444438384444442841
:100CA000384444287F385454541800087E090218E8
:100CB000A4A49C787F0804047800447D4000204070
:100CC000403D007F1028440000417F40007C0478B4
:100CD00004787C080404783844444438FC182424FC
:100CE0001818242418FC7C0804040848545454247C
:100CF00004043F44243C4040207C1C2040201C3CF9
:100D00004030403C44281028444C9090907C4464EF
:100D1000544C440008364100000077000000413682
:100D2000080002010204023C2623263C1EA1A16108
:100D3000123A4040207A385454555921555579413A
:100D40002254547842215554784020545579400C0F
:100D50001E527212395555555939545454593955F2
:100D60005454580000457C410002457D4200014535
:100D70007C407D1211127DF0282528F07C545545C9
:100D8000002054547C547C0A097F49324949493235
:100D90003A4444443A324A4848303A4141217A3A46
:100DA00042402078009DA0A07D3D4242423D3D4012
:100DB00040403D3C24FF2424487E4943662B2FFCC1
:100DC0002F2BFF0929F620C0887E0903205454796F
:100DD000410000447D413048484A32384040227A40
:100DE000007A0A0A727D0D19317D2629292F2826BD
:100DF0002929292630484D402038080808080808C5
:100E00000808382F10C8ACBA2F102834FA00007B1D
:100E1000000008142A142222142A14085500550030
:100E200055AA55AA55AAFF55FF55FF000000FF001F
:100E3000101010FF00141414FF001010FF00FF101A
:100E400010F010F0141414FC001414F700FF00004C
:100E5000FF00FF1414F404FC141417101F10101FCB
:100E6000101F1414141F00101010F0000000001FB9
:100E7000101010101F10101010F010000000FF10C4
:100E80001010101010101010FF10000000FF1400C0
:100E900000FF00FF00001F10170000FC04F41414F2
:100EA0001710171414F404F40000FF00F7141414BE
:100EB00014141414F700F7141414171410101F103E
:100EC0001F141414F4141010F010F000001F101F61
:100ED0000000001F14000000FC140000F010F010CF
:100EE00010FF10FF141414FF141010101F00000046
:100EF00000F010FFFFFFFFFFF0F0F0F0F0FFFFFF4A
:100F00000000000000FFFF0F0F0F0F0F38444438A0
:100F100044FC4A4A4A347E02020606027E027E02EF
:100F200063554941633844443C04407E201E2006FA
:100F3000027E020299A5E7A5991C2A492A1C4C7237
:100F400001724C304A4D4D303048784830BC625ABE
:100F5000463D3E494949007E0101017E2A2A2A2A4E
:100F60002A44445F444440514A444040444A51402A
:100F70000000FF0103E080FF000008086B6B0836EB
:100F800012362436060F090F06000018180000005C
:100F90001010003040FF0101001F01011E00191D4B
:100FA0001712003C3C3C3C00000000000000220006
:100FB000250028002B002E00310034000201000023
:100FC000050108010B0100000A0B02090C0D0E08B7
:100FD0000703040100000000000000000000000002
:100FE0000000000000000000000000000000000001
:100FF00000001211100000000000000000000000BE
:1010000000000000000000000000000000002000C0
:101010002300260029002C002F00320000010000D0
:10102000030106010901050505050705080808086B
:10103000020202020A0A0808040404040101010170
:10104000010101010303030303030303040707076B
:101050000C0C0C0C0C0C0C0C020202020606060610
:10106000060606060B0B0B0B0B0B0B0B01021020DD
:1010700020080810204010204080020102010804CE
:101080000201010204081020408080402010080462
:1010900002018004020180402010080402010804BB
:1010A00002010102040810204080010204081020FF
:1010B000408000002100240027002A002D0030007D
:1010C000330001010000040107010A018C2A1124E8
:1010D0001FBECFEFD1E2DEBFCDBF00E00CBF23E0EB
:1010E000A0EDB2E001C01D92A43DB207E1F712E00D
:1010F000A0E0B2E0E6EDFFE500E00BBF02C0079024
:101100000D92A03DB107D9F718E0C7E6D8E000E09E
:1011100006C021970109802FFE010E945A2CC63675
:10112000D10780E00807A9F70E944F210C94E92F0E
:101130000C940000EF92FF920F931F93DC01ED914E
:10114000FC9100A0F1A1E02D780101E010E01995DB
:101150001F910F91FF90EF900895EF92FF920F93E0
:101160001F93DC01ED91FC9100A0F1A1E02D78012D
:10117000890121E030E019951F910F91FF90EF90C8
:1011800008950895FC016370658B848195812681A3
:101190003781613039F0633029F091878087338758
:1011A00022870895318720879387828708956F92D9
:1011B0007F928F929F92AF92BF92CF92DF92EF92E7
:1011C000FF920F931F93CF93DF93EC014B015A01D2
:1011D00069013801E881F9810284F385E02D1995D0
:1011E000E881F9810288F389E02D87019601A50144
:1011F000B401CE011995A501460D571D4150510965
:10120000E881F9810288F389E02D9601B401CE01CD
:101210001995E881F9810088F189E02D9301A501F4
:10122000B401CE011995C80CD91CB60161507109E1
:10123000E881F9810088F189E02D9301A501CE01B3
:101240001995E881F9810688F789E02DCE01DF91B3
:10125000CF911F910F91FF90EF90DF90CF90BF90B3
:10126000AF909F908F907F906F9019948F929F92E4
:10127000AF92BF92CF92DF92EF92FF920F931F93A4
:10128000CF93DF934C016B015A01E901DC01ED9131
:10129000FC916217730781F40417150724F48B2D52
:1012A0005801042F182F0A191B0998012F5F3F4F6F
:1012B000048CF58DE02D12C04017510709F5261753
:1012C000370724F48D2D6901C62FD82F9E012C19C4
:1012D0003D092F5F3F4F068CF78DE02D8701A5015B
:1012E000B601C4011995DF91CF911F910F91FF9025
:1012F000EF90DF90CF90BF90AF909F908F90089528
:101300000284F385E02D1995D401ED91FC910488B8
:10131000F589E02D9E01A501B601C4011995D401FE
:10132000ED91FC910688F789E02DC401DF91CF9102
:101330001F910F91FF90EF90DF90CF90BF90AF90F3
:101340009F908F901994EF92FF920F931F93DC015F
:101350001A960D911C911B9718962D913C911997F7
:10136000ED91FC9100A0F1A1E02D7B0140E050E067
:1013700060E070E019951F910F91FF90EF90089534
:101380004F925F926F927F928F929F92AF92BF9295
:10139000CF92DF92EF92FF920F931F93CF93DF9341
:1013A0006C012B015A0139014801DC01ED91FC91DE
:1013B0000284F385E02D1995E201640C751CD601B9
:1013C000ED91FC91C615D7055CF40088F189E02DFC
:1013D00087019401A501BE01C60119952196EFCFA1
:1013E0000688F789E02DC601DF91CF911F910F91FB
:1013F000FF90EF90DF90CF90BF90AF909F908F9035
:101400007F906F905F904F9019948F929F92AF92C0
:10141000BF92CF92DF92EF92FF920F931F93CF93E1
:10142000DF93EC015B014A016901E881F9810284E3
:10143000F385E02D199595012C0D3D1D21503109A5
:10144000E881F9810488F589E02D78018401A401FF
:10145000B501CE011995E881F9810688F789E02D5B
:10146000CE01DF91CF911F910F91FF90EF90DF9010
:10147000CF90BF90AF909F908F901994AF92BF92F2
:10148000CF92EF92FF920F931F93CF93DF93EC01D4
:10149000262F888D998D009709F040C06A3059F445
:1014A0001D861C862C898E859F8538E0239F800DA4
:1014B000911D112441C06D3009F4AAC08E89882382
:1014C000C1F03C898C859D8546E0349F800D911D3F
:1014D000112448855985481759075CF41D861C86D8
:1014E0008E859F8548E0349F800D911D11249F8734
:1014F0008E87EA88FB88088919894E855F856C8507
:101500007D85CC88CE010E9490122C898C859D858A
:1015100036E0239F800D911D112442C06A3079F47A
:101520001D861C862C89FC013696E4918E859F854C
:101530002E9F800D911D11249F878E8769C06D306D
:1015400009F466C0FC0134963491631708F460C056
:101550003196E491E61708F45BC0FC013296659180
:101560007491422F50E0431B510937E0349F5001E2
:10157000359FB00C1124A60EB71EF501329634919A
:101580003196E491332311F0E1110DC0F501349649
:10159000E4912C898C859D85E29F800D911D1124FD
:1015A0009D878C8735C0F501359644915E8955231A
:1015B00011F16C89E32FF0E0E40FF11D47FDFA957E
:1015C0006E9FD0016F9FB00D11244C855D854A0F31
:1015D0005B1FE885F985E417F5076CF41D861C860A
:1015E000FC013696E4918E859F856E9F800D911D3E
:1015F00011249F878E87EA88FB88088919894E8580
:101600005F856C857D85CC88CE010E949012BECF0F
:1016100081E090E0DF91CF911F910F91FF90EF90CB
:10162000CF90BF90AF9008958B988A982091020137
:10163000277820930201A5982EB1277C2EB97091AE
:101640000201292F3327F901E370FF27A5E0EE0FF0
:10165000FF1FAA95E1F7E72BE09302017EB1F901A4
:10166000EC70FF27EE0FFF1FEE0FFF1FE72BEEB909
:1016700074B3F901E071FF27EE0FFF1FE72BE4BB06
:101680007EB1F901E072FF27F595E795F595E795AD
:10169000E72BEEB970910201207C3327E3E035950A
:1016A0002795EA95E1F7272B209302018998899ADB
:1016B00020910201277820930201A5982EB1277C62
:1016C0002EB9709102019C0123703327F5E0220F9F
:1016D000331FFA95E1F7272B209302017EB19C017D
:1016E0002C703327220F331F220F331F272B2EB9C5
:1016F00074B39C0120713327220F331F272B24BB87
:101700007EB19C0120723327359527953595279515
:10171000272B2EB9709102019C01207C3327F3E026
:1017200035952795FA95E1F7272B209302018998A3
:10173000899A8A9AFA01A091D1027FEF760F161644
:101740000CF0C7C02191309102013778309302012B
:10175000A5983EB1377C3EB960910201322F3370BB
:10176000B0E23B9FA0011124462B409302016EB1D1
:10177000322F3C70B4E03B9FA0011124462B4EB9A0
:1017800044B3322F3071330F342B34BB6EB1322F50
:101790003072432F50E05595479555954795462B08
:1017A0004EB930910201207C269526952695232B53
:1017B000209302018998899A711102C0672FBDCFC9
:1017C000AA23E1F301968A982091020127782093B9
:1017D0000201A5982EB1277C2EB960910201292F14
:1017E0003327A90143705527B5E0440F551FBA951B
:1017F000E1F7462B409302016EB1A9014C705527C9
:10180000440F551F440F551F462B4EB964B3A90111
:1018100040715527440F551F462B44BB6EB1A9019B
:10182000407255275595479555954795462B4EB986
:1018300040910201207C332753E0359527955A9536
:10184000E1F7242B209302018998899A20910201C3
:10185000277820930201A5982EB1277C2EB94091BC
:1018600002019C012370332765E0220F331F6A9524
:10187000E1F7242B209302014EB19C012C703327F9
:10188000220F331F220F331F242B2EB944B39C0188
:1018900020713327220F331F242B24BB4EB19C0110
:1018A000207233273595279535952795242B2EB90A
:1018B000409102019C01207C3327B3E035952795A8
:1018C000BA95E1F7242B209302018998899A8A9A84
:1018D00075CF8B9A08958B988A98E2E0F1E0208189
:1018E00027782083A5982EB1277C2EB9A081292F97
:1018F0003327A90143705527B5E0440F551FBA950A
:10190000E1F74A2B4083AEB1A9014C705527440F33
:10191000551F440F551F4A2B4EB9A4B3A90140715E
:101920005527440F551F4A2B44BBAEB1A901407245
:10193000552755954795559547954A2B4EB9408162
:10194000207C332753E0359527955A95E1F7242BD2
:1019500020838998899A208127782083A5982EB1A1
:10196000277C2EB940819C0123703327A5E0220FEC
:10197000331FAA95E1F7242B20834EB19C012C70D4
:101980003327220F331F220F331F242B2EB944B3CA
:101990009C0120713327220F331F242B24BB4EB10F
:1019A0009C01207233273595279535952795242B53
:1019B0002EB92081807C9927B3E095958795BA95BB
:1019C000E1F7822B80838998899A8A9A8081877827
:1019D0008083A5988EB1877C8EB94081872F992707
:1019E0009C012370332755E0220F331F5A95E1F7EE
:1019F000242B20834EB19C012C703327220F331FE0
:101A0000220F331F242B2EB944B39C01207133279E
:101A1000220F331F242B24BB4EB19C01207233278D
:101A20003595279535952795242B2EB92081807CD7
:101A30009927A3E095958795AA95E1F7822B808356
:101A40008998899A808187788083A5988EB1877CD0
:101A50008EB92081CB0183709927B5E0880F991F3B
:101A6000BA95E1F7822B80832EB1CB018C70992738
:101A7000880F991F880F991F822B8EB924B3CB0131
:101A800080719927880F991F822B84BB2EB1CB01BF
:101A9000807299279595879595958795822B8EB914
:101AA0008081607C7727A3E075956795AA95E1F71B
:101AB000682B60838998899A8B9A0895EF92FF9298
:101AC0000F931F93CF93DF937C01E90177FD2AC029
:101AD00057FD28C0FC01808591856817790714F5AA
:101AE0008285938548175907ECF48091D0028823AA
:101AF00041F0CE018F719927880F991FC17CC82BA7
:101B0000D92B8A019B01C7010E941A15BE01F7015A
:101B100082A593A5DF91CF911F910F91FF90EF9038
:101B20000C946B0CDF91CF911F910F91FF90EF9070
:101B30000895DF92EF92FF920F931F93CF93DF935D
:101B4000CDB7DEB72A970FB6F894DEBF0FBECDBF74
:101B50007C01862F8370D70155968C935597462F1D
:101B6000417060FF05C016962D913C91179703C0F8
:101B7000F70124813581D70119963C932E9318974C
:101B8000442329F014962D913C91159703C0F70139
:101B900026813781D7011B963C932E931A9782306A
:101BA00041F0833041F0813011F088E405C088E2D3
:101BB00003C088E901C088EF8A87F701248D358D3D
:101BC00030FF03C08A8580588A8731FF04C09A8518
:101BD00080E489278A8733FF04C09A8588E08927B3
:101BE0008A87D7015E968D919C915F9720FFCEC02A
:101BF0001091D1028431B8E69B07F9F49A85892FB8
:101C0000881F8827881F8295880F880F807C96FD03
:101C100002C020E001C020E298729A871F82826091
:101C2000822B88878BE38987AE01495F5F4F63E032
:101C300086EB90E00E94140B82C08336E9E19E0798
:101C400041F08138F4E99F0721F0813125E19207C5
:101C500009F52A8527FF02C021602A872A8526FFE9
:101C600002C022602A87833639E1930719F48A85F6
:101C70008F730EC0813844E9940719F48A858F72F6
:101C800007C08131954109F05AC08A858F7E806CEA
:101C90008A8755C0112309F452C062E070E0F70151
:101CA00077A366A326E030E031A720A7E2E2F0E0C8
:101CB000D7019B96FC93EE939A979D967C936E9397
:101CC0009C9764E070E09F967C936E939E97D1966C
:101CD0003C932E93D09728E030E0D3963C932E93FC
:101CE000D2978536910501F59A8594FD03C081E868
:101CF00089278A87442351F082E890E0F70197A36F
:101D000086A380E890E091A780A731C280E890E0A8
:101D1000D70197969C938E93969782E890E0999638
:101D20009C938E93989723C282359245E9F48A85D5
:101D300084FD02C0826001C086608A8715C02AE2E5
:101D400030E0F70137A326A38BE290E091A780A7AC
:101D50004CE250E053A742A735A724A737A726A7F0
:101D600091AB80AB93AB82AB111101C286E390E0E3
:101D7000AE01465F5F4F61E00E94140B8A8590E0E0
:101D8000D70193969C938E939297E6C02A858339C8
:101D9000B7E79B0709F448C050F48435F1E09F078A
:101DA00081F0803234E5930709F081C03DC086326E
:101DB00043E99407C9F18930A5EB9A0709F077C088
:101DC00033C087E390E0F70195A784A786E390E00E
:101DD00097A786A789E390E091AB80AB88E390E07A
:101DE00093AB82AB80E290E097A386A381E290E080
:101DF00091A780A782E290E093A782A7822F022E6C
:101E0000000C990B8827990F881F9927982F8827EE
:101E1000990F26FD03C060E070E002C060E071E051
:101E20008862682B792B82C040E052E0D7019796F8
:101E30005C934E93969741E052E099965C934E9353
:101E4000989742E052E09B965C934E939A9740E1BC
:101E500052E09D965C934E939C9741E152E09F9691
:101E60005C934E939E9742E152E0D1965C934E93E1
:101E7000D09743E152E0D3965C934E93D29727FDDF
:101E800003C020E030E002C020E030E88632B3E951
:101E90009B0731F08032944519F060E07AE602C089
:101EA00060E075E3622B732B80E094E035C080E244
:101EB00090E0D70197969C938E93969781E290E05D
:101EC00099969C938E93989782E290E09B969C9330
:101ED0008E939A9780E590E09D969C938E939C9725
:101EE00081E590E09F969C938E939E9782E590E08B
:101EF000D1969C938E93D09783E590E0D3969C9354
:101F00008E93D29727FD03C060E070E002C060E0CE
:101F100070E8776280E690E00E946B0C8A8586FD0F
:101F200003C060E070E002C060E071E081E090E03A
:101F30000E946B0C8A8585FD03C060E070E002C0E2
:101F400068E070E083FD70616063F70173A362A3D2
:101F500083E090E00E946B0CD70155968C915597C9
:101F600080FF36C05C968D919C915D9792FD30C04C
:101F700096968D919C91979798962D913C919997D3
:101F800097963C932E93969799969C938E939897B9
:101F90009C968D919C919D97D0962D913C91D19737
:101FA0009D963C932E939C97D1969C938E93D0971D
:101FB0009E968D919C919F97D2962D913C91D3970F
:101FC0009F963C932E939E97D3969C938E93D297F5
:101FD000F7010285138501501109208531852150B3
:101FE000310940E050E060E070E0C7010E941A153E
:101FF000D70116966D917C9117975E968D919C9165
:102000005F978732B3E99B0741F4F7012589225096
:10201000223018F400E210E002C000E010E0873245
:10202000F3E99F0729F022273327201B310B04C037
:1020300020E230E0201B310BD7015C964C9140FF31
:1020400045C01982D02E0A837B836C833D832E8307
:102050001091D102111103C083E390E002C08EE021
:1020600090E0AE014F5F5F4F66E00E94140B198253
:10207000DA82111103C087E390E002C084E190E0AE
:10208000AE014F5F5F4F62E00E94140B112389F095
:102090001982F701868D978D8734934819F081E076
:1020A00090E002C088E190E0AE014F5F5F4F61E0D9
:1020B0000AC0D7015C968C9180FF5CC040E050E084
:1020C00060E083E190E00E94140B54C08339B7E7CD
:1020D0009B0789F160F48032F4E59F0761F1833852
:1020E00027E7920791F08435914099F512C0863226
:1020F00043E9940701F128F485529249029748F088
:1021000028C08930954BB9F024C0F70160A171A1B6
:1021100024C0600F711F6150710981E390E00E943B
:102120006B0CB80182E390E00E946B0C60E070E001
:1021300083E390E019C0D70190966D917C919197BF
:10214000626081E094E00E946B0CB80184E094E04E
:102150000BC0F70160A171A1626081E690E00E946E
:102160006B0CB8018AE690E00E946B0C03C086E11C
:1021700090E0FECD2A960FB6F894DEBF0FBECDBF1D
:10218000DF91CF911F910F91FF90EF90DF90089515
:10219000FC01948D858D829581708627682F70E073
:1021A00071A360A390FF0CC0811103C080E290E096
:1021B00002C081E290E040E050E060E00C94140B3B
:1021C000868D978D873222E9920780F4853222E945
:1021D0009207A0F4803224E59207C1F0833927E703
:1021E0009207A1F084359140A9F408C0863223E912
:1021F000920761F08930954B69F408C0660F771F2C
:10220000660F771F636187E090E006C0626081E03F
:1022100094E002C081E690E00C946B0CCF92DF92C8
:10222000EF92FF920F931F93CF93DF93CDB7DEB75B
:10223000C054D1400FB6F894DEBF0FBECDBF2FB74C
:10224000F8948091D2029091D302A091D402B091DF
:10225000D5022FBF4091C0035091C1036091C203CA
:102260007091C3038C019D01041B150B260B370BCA
:10227000B901A801403D57406105710518F48091EE
:10228000C8033EC18093C0039093C103A093C203CF
:10229000B093C3031092BB031092BA031092B90318
:1022A0001092B8031092B70362E08091BC030E94C1
:1022B0008F2061E070E080E090E00E94CB2061E040
:1022C0008091BC030E948F202091BC0330E0F90173
:1022D000EA53F04F8491F901E459FF4E4491F9011A
:1022E000EA5DFF4E2491222309F467C0882309F494
:1022F00055C090E0FC013197E231F10508F04EC085
:102300008827EE58FF4F8F4F0C945A2C80918000F5
:102310008F7707C0809180008F7D03C080918000FF
:10232000877F809380003AC084B58F7702C084B5E0
:102330008F7D84BD33C08091B0008F7703C08091C2
:10234000B0008F7D8093B00029C0809190008F777E
:1023500007C0809190008F7D03C080919000877F9F
:10236000809390001BC08091A0008F7707C0809160
:10237000A0008F7D03C08091A000877F8093A00084
:102380000DC0809120018F7707C0809120018F7D43
:1023900003C080912001877F80932001E22FF0E02D
:1023A000EE0FFF1FE455F04FA591B4919FB7F8943D
:1023B0008C91409548234C939FBF8091BD038551DC
:1023C000823028F48BE291E10197F1F706C064E1D5
:1023D00070E080E090E00E94CB2062E08091BC033E
:1023E0000E948F208091C90390E08230910538F0DF
:1023F000880F991F880F991F05970197F1F7F89497
:1024000080E00E94081C6F3F7F4F8F4F9F4F21F449
:102410001092C803789441C081E00E94081C6F3F6D
:102420007F4F8F4F9F4FA1F38E010F5F1F4F6E01A4
:102430008FEBC81A8EEFD80A780180E00E94081C42
:10244000F701608371838283938381E00E94081C7B
:10245000F7016483758386839783F8E0EF0EF11CA0
:10246000EC14FD0451F7789420E030E0F801C080CE
:10247000D180E280F3804481558166817781FFEFCE
:10248000CF16DF06EF06FF0631F04F3F8FEF5807FC
:102490006807780721F41092C80380E031C0F90181
:1024A00083E0F595E7958A95E1F7E954FC4F808143
:1024B000880FC416D506E606F70608F48160808307
:1024C0002F5F3F4F085F1F4F2832310579F620916B
:1024D000BB0330E04091B7038091B80390E0840FD4
:1024E000911D4091B903840F911D4091BA03840F4F
:1024F000911D99272817390771F681E08093C80349
:10250000C05CDE4F0FB6F894DEBF0FBECDBFDF91CB
:10251000CF911F910F91FF90EF90DF90CF90089592
:102520002F923F924F925F926F927F928F929F92E3
:10253000AF92BF92CF92DF92EF92FF920F931F93D1
:10254000CF93DF93CDB7DEB76B970FB6F894DEBFAE
:102550000FBECDBF9B8F8A8F5B011A01D22E1F83C6
:102560000E833701C982DC0158962D913C91599711
:102570002115310509F0E6C018968D919C911997A7
:10258000681779070CF0CDC11A968D919C911B9715
:10259000481759070CF0C5C18C2C912CFB0126E083
:1025A000C29EE00DF11D1124FB87EA871E161F064F
:1025B0000CF0B7C1A40183E0440F551F8A95E1F7E1
:1025C0005D874C87CA01820D931D181619060CF001
:1025D000A8C157968C91811104C05FEA5D1508F47B
:1025E000D394AA8DBB8DED91FC9111970284F38554
:1025F000E02DCD011995B5E0DB9EC0011124F50158
:102600003596FF87EE87BB82AA8225019C012A1995
:102610003B09398B288BA101485F5F4F5B8B4A8B4D
:10262000E889F989E40DF51DE455F54F5491588773
:1026300061013D822C82888580FF13C0AA8DBB8DED
:10264000ED91FC91B981B13031F40484F585E02D30
:102650002E813F8116C00684F785E02DEE80FF8035
:102660001AC0EE81FF81E615F705F1F0AA8DBB8D4A
:10267000ED91FC91B981B13051F40484F585E02DE0
:102680009301A601B2018A8D9B8D19950DC0068418
:10269000F785E02D7301840194014C815D816A818D
:1026A0007B818A8D9B8D1995E885E695E887FFEFFC
:1026B000CF1ADF0A2C813D81280D391D3D832C83E3
:1026C0004A895B89C416D50609F0B5CF5FEF451A74
:1026D000550A8A819B81880D991D9B838A83AE85CB
:1026E000BF854A165B0609F09BCFEE81FF81E61598
:1026F000F70509F4F4C0EA8DFB8DA081B181F98161
:10270000F13079F4B5016B5F7F4F5096ED91FC91FC
:102710005197830128E030E0A1018A8D9B8D1995A6
:10272000DEC06A857B85681979091E96ED91FC915A
:102730001F9773010C851D859401A1018A8D9B8DC6
:102740001995CDC0F9013496E491DE1AF90132965B
:1027500085919491B7E0DB9E800D911D1124F901C4
:10276000259134913B8B2A8BFC01259134912901D1
:10277000FC013296C490319634913E873296149182
:102780003196D4904981423058F0612E012E000CD0
:1027900077088D2D0D2C000C990B9987888704C024
:1027A00019861886612C712CAA8DBB8DED91FC9138
:1027B00011970284F385E02DCD011995B9818B2EF7
:1027C000912C689CC001699C900D789C900D1124FF
:1027D000FC01EA0DFB1DFD87EC871A82712C612C30
:1027E000E12F110FFF0B95012E0F3F1F3B872A870B
:1027F000AC0CB11CA5014E0F5F1F5F8B4E8BC1014E
:102800008D0D911DD7FC9A95998F888F9E8569169D
:1028100008F065C0862D90E048855985480F591FFE
:10282000489D9001499D300D589D300D1124D101D6
:10283000A20FB31FB98BA88BEC85FD85FD83EC83BC
:10284000AA84BB84DA80FA85DF1A288D398D280F97
:10285000391F3D8B2C8B8D2D8A0D4E895F89A416D7
:10286000B506C1F1877041F4C2010196EA89FB897E
:10287000E40DF51D74902C0177FE21C0AA8DBB8D4F
:10288000ED91FC91B981B13061F40484F585E02DBE
:102890002E813F814C895D89B5018A8D9B8D19956B
:1028A0000EC00684F785E02DEE80FF808401940140
:1028B000488959896C817D818A8D9B8D1995770C0A
:1028C000EFEFAE1ABE0A2C813D81280D391D3D83E4
:1028D0002C83C1CF3A813C0D3A83639497CFAA8D64
:1028E000BB8DED91FC9111970688F789E02DCD0104
:1028F0006B960FB6F894DEBF0FBECDBFDF91CF91C0
:102900001F910F91FF90EF90DF90CF90BF90AF900D
:102910009F908F907F906F905F904F903F902F90FF
:1029200019946B960FB6F894DEBF0FBECDBFDF9142
:10293000CF911F910F91FF90EF90DF90CF90BF90BC
:10294000AF909F908F907F906F905F904F903F904F
:102950002F9008950F931F93CF93DF93EC018B017A
:1029600010161106B4F4FE01859194912496FE018F
:102970003297659174918F3F2FEF920729F480E091
:1029800090E00E94CB2002C00E946B0C0450110901
:10299000E7CFDF91CF911F910F910895DF92EF92D2
:1029A000FF920F931F93CF93DF93CDB7DEB7689756
:1029B0000FB6F894DEBF0FBECDBF7C018B011016A1
:1029C000110654F5F70184913196D490F2E0EF0EA0
:1029D000F11C8F3741F46D2D70E080E090E00E9493
:1029E000CB20D12C13C02E2DDE011196F701AD01A5
:1029F0009E2F921B9D1520F494919D933196F8CFB4
:102A0000ED0CF11C6D2D90E00E94140BED2DF0E00B
:102A100032960E1B1F0BD3CF68960FB6F894DEBF0D
:102A20000FBECDBFDF91CF911F910F91FF90EF901F
:102A3000DF9008958F929F92AF92BF92CF92DF92D4
:102A4000EF92FF920F931F93CF93DF9300D01F92CB
:102A5000CDB7DEB77C014B015A016901FC01868DBF
:102A6000978D8732F3E99F0799F4F70185898230C2
:102A700031F4F0E2AF0EB11C005E1F4F1EC0833078
:102A8000E1F420E2820E911C80E2C80ED11C15C038
:102A90008632954191F4F701858980FF0EC0C80107
:102AA000841B950B19F40F5F1F4F07C06217730744
:102AB00021F46B01C80ED91E8A01F701848D80FFB5
:102AC0001AC084A599828A82DB82CC82AE014F5FD4
:102AD0005F4F64E090E00E94140BF70180A9B98277
:102AE000AA821B830C83AE014F5F5F4F64E090E0CE
:102AF0000E94140B3CC0B401F70186A197A10E946B
:102B00006B0CB501F70180A591A50E946B0CC81450
:102B1000D90419F40A151B0551F1F701848D85FFBD
:102B20000EC0858980FF06C0102F0027A02AB12A79
:102B3000850105C0DC2CCC248C289D286401B401BF
:102B4000F70184A595A50E946B0CB501F70180A93A
:102B500091A90E946B0CB601F70186A597A50E946A
:102B60006B0CB801F70182A993A90E946B0C0F901E
:102B70000F900F900F90DF91CF911F910F91FF90C9
:102B8000EF90DF90CF90BF90AF909F908F9008957F
:102B9000AF92BF92CF92DF92EF92FF920F931F936B
:102BA000CF93DF93EC018091D002882349F0C701D5
:102BB0008F719927880F991FE1ECEE22E82AF92AF4
:102BC00037FF05C0620F731F319521953109260F1C
:102BD000371F77FF02C060E070E088859985821713
:102BE00093070CF49C016901C61AD70A17FF05C0A8
:102BF000400F511F119501951109040F151F57FF23
:102C000002C040E050E08A859B85801791070CF454
:102C10008C015801A41AB50A01501109215031093B
:102C2000CE010E941A158B988A988AA59BA520919F
:102C30000201277820930201A5982EB1277C2EB996
:102C400060910201292F3327A9014370552705E020
:102C5000440F551F0A95E1F7462B409302016EB1D0
:102C6000A9014C705527440F551F440F551F462B83
:102C70004EB964B3A90140715527440F551F462B27
:102C800044BB6EB1A901407255275595479555959E
:102C90004795462B4EB940910201207C3327A3E093
:102CA00035952795AA95E1F7242B20930201899861
:102CB000899A20910201277820930201A5982EB1CC
:102CC000277C2EB9409102019C0123703327B5E087
:102CD000220F331FBA95E1F7242B209302014EB146
:102CE0009C012C703327220F331F220F331F242BFC
:102CF0002EB944B39C0120713327220F331F242B9C
:102D000024BB4EB19C01207233273595279535950C
:102D10002795242B2EB920910201807C992763E00E
:102D2000959587956A95E1F7822B809302018998A2
:102D3000899A8A9ACA14DB042CF49C2D8D2D650186
:102D4000A92EB82E8F2D99279C0123703327229509
:102D5000220F207EAC014C705527342F330F330FD8
:102D6000AC0140715527440FBC0176956795769567
:102D70006795562F587063E0969587956A95E1F7A9
:102D80008871B70163707727962F9295990F907E7F
:102D9000B7016C707727660F660FF701E071FF27A8
:102DA0007E2F770FD701B695A795B695A795A870F2
:102DB000F701B3E0F695E795BA95E1F71E2F187184
:102DC0001A141B040CF043C0F601B0910201B7784D
:102DD000B0930201A598BEB1B77CBEB9B091020113
:102DE000B22BB0930201BEB1B32BBEB9B4B3B42BB6
:102DF000B4BBBEB1B52BBEB9B0910201B82BB09334
:102E000002018998899AB0910201B778B0930201C2
:102E1000A598BEB1B77CBEB9B0910201B92BB093F1
:102E20000201BEB1B62BBEB9B4B3B72BB4BBBEB1B1
:102E3000BA2BBEB9B0910201B12BB09302018998AF
:102E4000899A319711F6E1E0AE1AB108B9CF8B9AA1
:102E50008C8D80FF08C08E8D9F8D8632954191F4B8
:102E60008D8980FF0FC00A851B85015011092885B7
:102E700039852150310940E050E060E070E0CE013A
:102E80000E941A15DF91CF911F910F91FF90EF9043
:102E9000DF90CF90BF90AF900895E6EDF2E0A0896B
:102EA000B18982E08C93A485B5851C92A685B785EF
:102EB0008FEC8C93108EA489B58986E08C93A289BF
:102EC000B3898C9180618C93A289B3898C9188603D
:102ED0008C93A289B3898C9180688C930288F38942
:102EE000E02D80818F7D8083089581E08093CA03E7
:102EF000E1E0F1E08081886780839D9A8DB18863ED
:102F00008DB9809A819A829A839A849A8B9A889AA8
:102F1000899A8C9A62E370E080E090E00E94CB2076
:102F20008C9864E670E080E090E00E94CB208C9A60
:102F300064E670E080E090E00E94CB2060E070E00A
:102F400080EB90E00C946B0C0F931F93CF93DF9367
:102F50008C01C0E0D0E0F801EC0FFD1F6491662306
:102F600041F086ED92E00E94DF1C892B11F0219642
:102F7000F2CFCE01DF91CF911F910F910895CF93A2
:102F8000DF930E94A417EC0186ED92E00E94EA1EF6
:102F90008C0F9D1FDF91CF9108950F931F93CF93B7
:102FA000DF93EC01162F8091CA03811102C00E94A9
:102FB00075178B988A988091020187788093020117
:102FC000A5988EB1877C8EB9409102018D2F9927EB
:102FD0009C012370332755E0220F331F5A95E1F7E8
:102FE000242B209302014EB19C012C703327220F19
:102FF000331F220F331F242B2EB944B39C012071A1
:103000003327220F331F242B24BB4EB19C01207287
:1030100033273595279535952795242B2EB9209163
:103020000201807C9927F3E095958795FA95E1F761
:10303000822B809302018998899A80910201877876
:1030400080930201A5988EB1877C8EB920910201F0
:10305000CE0183709927A5E0880F991FAA95E1F703
:10306000822B809302012EB1CE018C709927880F9C
:10307000991F880F991F822B8EB924B3CE018071BE
:103080009927880F991F822B84BB2EB1CE018072A5
:1030900099279595879595958795822B8EB98091DF
:1030A0000201C07CDD2743E0D595C7954A95E1F73D
:1030B000C82BC09302018998899A8A9A809101014C
:1030C0008778809301019D988DB1877C8DB961E0EF
:1030D00070E080E090E00E94CB20889A88988898E1
:1030E0008898609100018CB1A2B34CB100910001AD
:1030F000889A889A889888988898E0910001FCB10D
:1031000032B32CB1C0910001889A115017FFE5CF5E
:10311000889A8B9A909101019867909301019D9AEA
:103120009DB198639DB9487050E0440F551F440FFE
:10313000551F087198E0099F80011124402B512BE5
:10314000A072B0E0B595A7954A2B5B2B807390E0F9
:103150009595879595958795482B592B607670E0C6
:10316000B5E075956795BA95E1F7462B572B542F27
:1031700044272870220F220F8C2F887198E0899F96
:10318000E00111249C2F922B3072232F30E03595D3
:103190002795292B9F2F907396959695922B2E2FDE
:1031A0002076229526952770292BCA01822BDF9144
:1031B000CF911F910F910895FF920F931F93CF937B
:1031C000DF93EC0160E00E94CD178C0161E0CE013D
:1031D0000E94CD17F82E62E0CE010E94CD1720E0AC
:1031E00030E0302F22271127002740E050E05F2DEC
:1031F00060E070E0042B152B262B372B492F50E075
:1032000060E070E0CB01BA01602B712B822B932B15
:10321000DF91CF911F910F91FF9008950F931F930E
:10322000CF93DF938C0160E00E94CD17EC0161E049
:10323000C8010E94CD17AC01CE01A0E0B0E0DC01D6
:103240009927882760E070E08C019D01042B152BE5
:10325000262B372BC901B801DF91CF911F910F9118
:103260000895CF92DF92EF92FF92CF93DF936B019D
:103270007C016DE286ED92E00E94DF1CEC014427A8
:103280005527BA014C195D096E097F092AE086EDC0
:1032900092E00E94BB1D8C0F9D1FDF91CF91FF908C
:1032A000EF90DF90CF900895CF93DF93BC0186ED30
:1032B00092E00E94A61DEC0186ED92E00E94EA1EBB
:1032C0008C0F9D1FDF91CF9108954F925F926F9267
:1032D0007F928F929F92AF92BF92CF92DF92EF92A6
:1032E000FF920F93CF93DF93CDB7DEB728970FB63A
:1032F000F894DEBF0FBECDBF6B017C0149015A01BE
:1033000001110EC026E636E646EE5FE30E947A2BF8
:1033100020E030E040E052E40E94632C6B017C012D
:1033200020E030E048E852E4C701B6010E94622C78
:103330002AE939E949E95FE30E947A2B2B013C0134
:1033400020E030E044E752E4C701B6010E94632C5C
:103350009B01AC01C301B2010E94632C2B013C0113
:1033600022E133E840EC5DE3C501B4010E947A2B11
:103370009B01AC01C301B2010E94632C20E030E04C
:1033800040E05FE30E947A2B2B013C0120E030E01B
:103390004EE952E40E94702D18160CF075C1A70179
:1033A0009601C701B6010E947A2B2B013C01A501B1
:1033B0009401C501B4010E947A2B6D837E838F83B3
:1033C000988721E133E243E050E4C701B6010E944F
:1033D0007A2B29E134E849E252E40E94622C6983A5
:1033E0007A838B839C8326E13BE442E251E4C5016E
:1033F000B4010E947A2B9B01AC0169817A818B8197
:103400009C810E94632C69837A838B839C8328E44C
:1034100036E246E65EEBC701B6010E947A2BA501B3
:1034200094010E947A2B9B01AC0169817A818B8186
:103430009C810E94632C69837A838B839C8320EE1A
:103440003FE040EE5BEBC301B2010E947A2B9B018F
:10345000AC0169817A818B819C810E94632C698394
:103460007A838B839C8328EF37E840E65DEB6D81A0
:103470007E818F8198850E947A2B9B01AC016981A6
:103480007A818B819C810E94632C69837A838B83F0
:103490009C832CEA3DE041EA5AE3C301B2010E9459
:1034A0007A2BA50194010E947A2B9B01AC016981C2
:1034B0007A818B819C810E94632C69837A838B83C0
:1034C0009C8328EC3FE84FE55AE3C701B6010E9410
:1034D0007A2B2D813E814F8158850E947A2B9B014A
:1034E000AC0169817A818B819C810E94632C698304
:1034F0007A838B839C8321EF3BE845E056EBC30145
:10350000B2010E947A2B2D813E814F8158850E9405
:103510007A2B9B01AC0169817A818B819C810E940D
:10352000632C2B013C0120E030E040E551E4C50173
:10353000B4010E94142B87FF5CC020E030E040EA19
:1035400052E4C701B6010E94702D87FD52C020E0F1
:1035500030E040EE52E4C701B6010E94142B181669
:103560000CF4A6C0A501940160E070E080E591E450
:103570000E94622C20E030E040E85EE30E947A2B5B
:103580004B015C0120E030E04EEB52E4C701B60194
:103590000E94622C6B017C0120E030E0A9010E94B6
:1035A000702D18164CF4A701960160E070E088E8D1
:1035B00091E40E94622C08C020E030E048E851E429
:1035C000C701B6010E94632C2EE33DEE40E75DE3A8
:1035D0000E947A2B0E947B2D9B01AC01C501B40196
:1035E0000E947A2B9B01AC01B201C3010E94622CA4
:1035F00049C020E030E04AEA52E4C501B4010E942B
:10360000702D18160CF040C020E030E040EA52E483
:10361000C701B6010E94702D87FD36C020E030E062
:103620004EEA52E4C701B6010E94142B181664F149
:1036300020E030E04AEA52E4C501B4010E94622C65
:103640002DEC3CEC4CEC5DE30E947A2B4B015C01D1
:10365000A701960160E070E08EEA92E40E94622C7D
:103660002DEC3CEC4CE45EE30E947A2B9B01AC0118
:10367000C501B4010E947A2B9B01AC01B201C301C8
:103680000E94632C2B013C0101110FC020E030E0AF
:1036900040E052E4B201C3010E94622C26E838E304
:1036A0004EE05FE30E947A2B0FC0B201C3010CC051
:1036B00020E030E04AEA52E4C501B4010E94702DD6
:1036C00018160CF4ABCFE0CF6B017C01C701B6013B
:1036D00028960FB6F894DEBF0FBECDBFDF91CF9115
:1036E0000F91FF90EF90DF90CF90BF90AF909F90A1
:1036F0008F907F906F905F904F900895CF92DF9260
:10370000EF92FF92CF93DF93C82F8091BD038C304F
:1037100009F446C018F48B30D1F06FC08551823067
:1037200008F06BC0D091B9036D2F6F7770E0762FE2
:1037300066278091BA03682B80E090E00E94192BE5
:103740002DEC3CEC4CEC5DE30E947A2B45C0609183
:10375000B90370E080E090E00E94192B6B017C01BE
:10376000D091BA03D7FF0AC09B01AC0160E070E0C2
:1037700080E89FEB0E94622C6B017C016D2F6F70C3
:1037800070E080E090E00E941B2B2DEC3CEC4CECB8
:103790005DE30E947A2BA70196010E94632C1EC054
:1037A000D091B9036D2F70E080E090E00E94192B5A
:1037B0006B017C016091BA036F7070E080E090E073
:1037C0000E941B2B2DEC3CEC4CEC5DE30E947A2B11
:1037D000A70196010E94632CD7FD9058CC2389F055
:1037E00026E636E646EE5FE30E947A2B20E030E0E4
:1037F00040E052E40E94632C04C060E070E080EC82
:103800009FE7DF91CF91FF90EF90DF90CF900895E9
:10381000CF92DF92EF92FF92CF93DF93B091BE03EE
:10382000882311F0AB2F01C0A0E08091BF0390E08E
:10383000880F991F845F9F4EC090C403D090C5032A
:10384000E090C603F090C70320E030E0FC01C59192
:10385000D491E881EB23A90160E070E0EA130CC089
:103860002F5F3F4F4C155D056E057F0578F33FEFE9
:103870002FEF8FEF9FEF03C0322F252FCB01632F48
:10388000722FDF91CF91FF90EF90DF90CF9008954E
:10389000CF92DF92EF92FF920F931F93CF93DF931C
:1038A0006C017A018B01C0E0D0E0CE15DF0581F01C
:1038B000D8016D918D01D601ED91FC910190F081BF
:1038C000E02DC6011995892B11F02196EECF7E01CE
:1038D000C701DF91CF911F910F91FF90EF90DF9083
:1038E000CF900895089580E090E00895FC01538DF5
:1038F000448D252F30E0842F90E0821B930B5417CA
:1039000010F0CF96089501970895FC01918D828D56
:10391000981761F0828DDF01A80FB11D5D968C9123
:10392000928D9F5F9F73928F90E008958FEF9FEF2E
:103930000895FC01918D828D981731F0828DE80FEA
:10394000F11D858D90E008958FEF9FEF0895FC01A4
:10395000918D228D892F90E0805C9F4F821B910971
:103960008F739927089586ED92E00E94A71C21E0AD
:10397000892B09F420E0822F0895FC01848DDF015A
:10398000A80FB11DA35ABF4F2C91848D90E00196D2
:103990008F739927848FA689B7892C93A089B189C1
:1039A0008C91837080648C93938D848D981306C062
:1039B0000288F389E02D80818F7D80830895EF92C6
:1039C000FF920F931F93CF93DF93EC0181E0888FD9
:1039D0009B8D8C8D981305C0E889F989808185FDC0
:1039E00026C0F62E0B8D10E00F5F1F4F0F731127AF
:1039F000E02E8C8DE8120CC00FB607FCFACFE889D8
:103A0000F989808185FFF5CFCE010E94BD1CF1CFE1
:103A10008B8DFE01E80FF11DE35AFF4FF0829FB737
:103A2000F8940B8FEA89FB89808180620AC09FB776
:103A3000F894EE89FF896083E889F9898081837031
:103A4000806480839FBF81E090E0DF91CF911F91E0
:103A50000F91FF90EF900895CF93DF93EC01888D45
:103A60008823C9F0EA89FB89808185FD05C0A88982
:103A7000B9898C9186FD0FC00FB607FCF5CF808108
:103A800085FFF2CFA889B9898C9185FFEDCFCE0152
:103A90000E94BD1CE7CFDF91CF91089580E090E0B8
:103AA000892B21F00E94B31C811125C080E090E099
:103AB000892B41F080E090E0892B21F00E940000EA
:103AC00081111CC080E090E0892B41F080E090E003
:103AD000892B21F00E940000811113C080E090E04A
:103AE000892BA1F080E090E0892B81F00E940000FA
:103AF00081110AC008950E940000D8CF0E940000E2
:103B0000E1CF0E940000EACF0C9400000895EF92EC
:103B1000FF920F931F93DC011A960D911C911B9736
:103B200018962D913C911997ED91FC9100A0F1A16F
:103B3000E02D7B0140E050E060E070E019951F91BE
:103B40000F91FF90EF9008950E94DB2F6115710592
:103B500079F0FB0101900020E9F73197AF01461B96
:103B6000570BDC01ED91FC910280F381E02D19945B
:103B700080E090E008958F929F92AF92BF92EF9273
:103B8000FF920F931F93CF93DF93CDB7DEB7A1972B
:103B90000FB6F894DEBF0FBECDBF7C01FA01CB019A
:103BA00019A2223008F42AE08E010F5D1F4F822EE9
:103BB000912CA12CB12CBF01A50194010E94382C9D
:103BC000F901CA01015011096A3014F4605D01C0A5
:103BD000695CD8016C93232B242B252B61F7B8014A
:103BE000C7010E94A61DA1960FB6F894DEBF0FBEB6
:103BF000CDBFDF91CF911F910F91FF90EF90BF90BC
:103C0000AF909F908F9008957F928F929F92AF92E6
:103C1000BF92CF92DF92EF92FF920F931F93CF93B9
:103C2000DF938C016A017B01722E9A01AB01C701FF
:103C3000B6010E94BB2D882319F061EC72E027C009
:103C400046015701E894B7F82FEF3FEF4FE75FE7E2
:103C5000C501B4010E94BB2D81110DC02FEF3FEFB4
:103C60004FE75FE7C501B4010E94142B18161CF43E
:103C700065EC72E00CC02FEF3FEF4FE75FE4C70148
:103C8000B6010E94702D181694F469EC72E0C80118
:103C9000DF91CF911F910F91FF90EF90DF90CF9028
:103CA000BF90AF909F908F907F900C94A61D2FEFA8
:103CB0003FEF4FE75FECC701B6010E94142B87FD71
:103CC000E4CF20E030E0A901C701B6010E94142B27
:103CD00087FF0FC0D801ED91FC910190F081E02D9C
:103CE0006DE2C8011995EC01F7FAF094F7F8F09439
:103CF00002C0C0E0D0E0B12C60E070E080E09FE363
:103D00007B1441F020E030E040E251E40E94CF2CEF
:103D1000B394F6CFA70196010E94632C6B017C013E
:103D20000E94412D4B015C012AE0AB01BC01C8019E
:103D30000E94BB1DC80FD91F7720E9F1C501B4014E
:103D40000E94192B9B01AC01C701B6010E94622C95
:103D50006B017C01D801ED91FC910190F081E02D87
:103D60006EE2C8011995C80FD91F20E030E040E28B
:103D700051E4C701B6010E947A2B4B015C010E94FD
:103D8000412D6B01E12CF12C2AE0B701A601C801FD
:103D90000E94BB1DC80FD91FC701B6010E94192B75
:103DA0009B01AC01C501B4010E94622C6B017C0136
:103DB0007A947110DACFCE01DF91CF911F910F91DC
:103DC000FF90EF90DF90CF90BF90AF909F908F903B
:103DD0007F9008956DEC72E00C94A61D0C94A61DC6
:103DE0001F920F920FB60F9211240BB60F922F93C2
:103DF0003F934F935F936F937F938F939F93AF9373
:103E0000BF93EF93FF9386ED92E00E94BD1CFF915C
:103E1000EF91BF91AF919F918F917F916F915F9142
:103E20004F913F912F910F900BBE0F900FBE0F90AF
:103E30001F9018951F920F920FB60F9211240BB678
:103E40000F922F938F939F93EF93FF93E091E6024E
:103E5000F091E7028081E091EC02F091ED0282FDA9
:103E600012C090818091EF028F5F8F732091F002DA
:103E7000821751F0E091EF02F0E0EA52FD4F958F8A
:103E80008093EF0201C08081FF91EF919F918F910C
:103E90002F910F900BBE0F900FBE0F901F90189593
:103EA0008F929F92AF92BF92CF92DF92EF92FF924A
:103EB0000F931F93CF93DF93EC015B014A016901DC
:103EC0007801E881F9810284F385E02D1995C80C09
:103ED000D91C860101501109E881F9810488F5890E
:103EE000E02D9501A401B501CE011995E881F98174
:103EF0000688F789E02DCE01DF91CF911F910F91B8
:103F0000FF90EF90DF90CF90BF90AF909F908F90F9
:103F100019940895EF92FF920F931F93DC01ED9196
:103F2000FC9100A0F1A1E02D19951F910F91FF9038
:103F3000EF9008950F931F93DC01ED91FC91068C97
:103F4000F78DE02D19951F910F9108950F931F93F1
:103F5000DC01ED91FC91048CF58DE02D19951F91FC
:103F60000F910895DC01ED91FC910084F185E02D25
:103F700019942F923F924F925F926F927F928F92FD
:103F80009F92AF92BF92CF92DF92EF92FF920F93E8
:103F90001F93CF93DF9300D000D0CDB7DEB72C01B5
:103FA0007E836D836A015901C801FC82EB8248015E
:103FB000841A950A97FE03C0919481949108350163
:103FC0002D813E81621A730A77FE03C07194619459
:103FD0007108681479045CF43A2D2B2D5C01832F51
:103FE000922F3D812E81DE82CD82C32ED22EAD81D5
:103FF000BE81AA16BB065CF43C2D2D2D6C01832FCF
:10400000922F3D812E81BE82AD82A32EB22E8501DC
:104010002D813E81021B130B1C012C183D0837FE1D
:1040200003C0319421943108780117FF03C03FEF9A
:10403000E31AF30AF594E794C816D9062CF08FEF2B
:104040009FEF9A83898304C0A1E0B0E0BA83A9837B
:104050002D813E81A216B30624F1D201ED91FC918F
:104060000484F585E02D2B813C816814790424F4C7
:104070004D815E81B60103C0A6016D817E81C201C2
:104080001995E218F308F7FE06C029813A81C20E9D
:10409000D31EE00EF11E8D819E8101969E838D833D
:1040A000D7CF26960FB6F894DEBF0FBECDBFDF91F7
:1040B000CF911F910F91FF90EF90DF90CF90BF9025
:1040C000AF909F908F907F906F905F904F903F90B8
:1040D0002F9008953FB7F8948091CC039091CD0331
:1040E000A091CE03B091CF0326B5A89B05C02F3F6A
:1040F00019F00196A11DB11D3FBFBA2FA92F982F0E
:104100008827820F911DA11DB11DBC01CD0142E088
:10411000660F771F881F991F4A95D1F70895CF938F
:10412000DF9390E0FC01E459FF4E2491FC01EA5D2D
:10413000FF4E8491882361F190E0880F991FFC0164
:10414000EE54FF4EC591D491FC01E455F04FA5917A
:10415000B491611109C09FB7F8948881209582239A
:104160008883EC912E230BC0623061F49FB7F894E2
:104170008881322F309583238883EC912E2B2C93CA
:104180009FBF06C08FB7F894E8812E2B28838FBF7E
:10419000DF91CF9108958F929F92AF92BF92CF926D
:1041A000DF92EF92FF926B017C010E946A204B012B
:1041B0005C01C114D104E104F104F1F00E946A2011
:1041C000DC01CB0188199909AA09BB09883E9340F3
:1041D000A105B10570F321E0C21AD108E108F10888
:1041E00088EE880E83E0981EA11CB11CC114D10476
:1041F000E104F10419F7DDCFFF90EF90DF90CF904D
:10420000BF90AF909F908F9008951F920F920FB61E
:104210000F9211242F933F938F939F93AF93BF934C
:104220008091D2029091D302A091D402B091D50294
:104230003091CB0323E0230F2D3720F40196A11DED
:10424000B11D05C026E8230F0296A11DB11D2093C4
:10425000CB038093D2029093D302A093D402B09365
:10426000D5028091CC039091CD03A091CE03B09163
:10427000CF030196A11DB11D8093CC039093CD0374
:10428000A093CE03B093CF03BF91AF919F918F9135
:104290003F912F910F900FBE0F901F901895CF93C5
:1042A000DF93CDB7DEB72B970FB6F894DEBF0FBE06
:1042B000CDBF789484B5826084BD84B5816084BDAF
:1042C00085B5826085BD85B5816085BD80916E00B4
:1042D000816080936E0010928100809181008260E5
:1042E0008093810080918100816080938100809122
:1042F00080008160809380008091B1008460809311
:10430000B1008091B00081608093B00080919100F5
:1043100082608093910080919100816080939100F0
:10432000809190008160809390008091A1008260D4
:104330008093A1008091A10081608093A100809171
:10434000A00081608093A000809121018260809311
:1043500021018091210181608093210180912001C0
:1043600081608093200180917A00846080937A003C
:1043700080917A00826080937A0080917A008160D7
:1043800080937A0080917A00806880937A001092FE
:10439000C1000E944D1787E492E00E94541962E028
:1043A0008091BC030E948F202FB7F8948091D20295
:1043B0009091D302A091D402B091D5022FBF805D1D
:1043C0009740A109B1098093C0039093C103A093C2
:1043D000C203B093C30387E38093C9030E944D17C0
:1043E00082E99AE00E94BF1786E69AE00E94BF1712
:1043F0008AE39AE00E94BF1763E572E086ED92E0DF
:104400000E94EE1E40917D0350917E03052E000C0C
:10441000660B770B77FF05C0CB01BA010E943119FB
:1044200005C02AE086ED92E00E94BB1D60E672E0C6
:1044300086ED92E00E94EE1E40917F035091800332
:10444000052E000C660B770B77FF05C0CB01BA0178
:104450000E94311905C02AE086ED92E00E94BB1D42
:1044600086ED92E00E94EA1E0E94751760E080E0EF
:1044700090E00E94CD17883024E5920709F4C1C06E
:10448000803264E5960709F4BFC08938994809F479
:10449000BEC060E087E690E00E94CD178734974465
:1044A00009F4B8C081EA90E00E940E196130F1E68B
:1044B0007F0709F4B2C06F3F7F4F19F486E295E1A0
:1044C000DAC08FEB90E00E94DC18673583E878074C
:1044D00009F4A6C0613894E9790709F4A4C06131F0
:1044E000E5E17E0709F4A2C06032F5E17F0709F437
:1044F000A0C0663225E1720709F3613885E17807CB
:1045000009F49AC06115744109F499C084ED90E0F2
:104510000E940E196031734509F494C087ED90E054
:104520000E940E196133704809F48FC08FEE90E03D
:104530000E94DC186732734909F48AC08EEF90E05C
:104540000E940E19BB27A92F982F872F83359042E1
:1045500009F481C084E090E00E940E199B01811152
:1045600024C0211570E8370701F58091060290916B
:104570000702A091080289839A83AB83AE014F5F43
:104580005F4F63E089EB90E00E94140B60E080EDE8
:1045900090E00E94CD17893929F08039A1F480E993
:1045A00090E969C089E990E066C0263285E1380764
:1045B00009F484CF223595E8390709F44FC0213139
:1045C0003C4A09F44EC083ED90E00E940E193DE68E
:1045D000370F323008F448C0783909F445C07737CE
:1045E00009F442C0763109F43FC0633D7105F1F131
:1045F000633D734DF1F160E080E090E00E94CD17E3
:104600003AC088E094E537C080E294E534C089E898
:1046100092E131C087E493E82EC083E699E12BC094
:1046200087E593E828C081E894E925C081E195E118
:1046300022C080E295E11FC081E895E11CC084E1C1
:1046400098E619C080E193E516C081E390E813C0B5
:1046500087E293E910C083E590E20DC089E897E70F
:104660000AC081E19CEA07C0CB0105C083ED90E060
:1046700002C083ED93ED90937403809373038532AE
:1046800023E9920719F481E29AE006C0883263E9CF
:10469000960729F488E09AE00E94BF1759C0853335
:1046A00075E4970719F48EEE99E0F6CF8537E5E7C4
:1046B0009E0719F485ED99E0EFCF8134F3E99F0768
:1046C00019F48CEB99E0E8CF873523E8920719F4C9
:1046D00083EA99E0E1CF8130914049F481E493E9A4
:1046E00090937403809373038BE899E0D5CF81E7AF
:1046F00099E00E94A417409173035091740360E005
:1047000070E020E186ED92E00E94BB1D86ED92E014
:104710000E94EA1E8AE399E00E94BF1787E199E0B0
:104720000E94BF1783EE98E00E94BF178BEA98E0C3
:104730000E94BF1782E798E00E94BF178CE598E0BF
:104740000E94BF1781E493E99093740380937303ED
:10475000E0907303F09074030E9475171092900319
:1047600010928F03F0929403E092930377E5E7169B
:1047700073E8F70609F4DDC108F009C195E3E9160D
:1047800095E4F90609F4BFC108F07BC0F0E2EF162A
:10479000F5E1FF0609F4AAC108F04AC064E5E6168F
:1047A00061E0F60609F497C1F0F489E9E816F1042E
:1047B00009F07BC283E194E190939203809391038B
:1047C00080EE91E090937C0380937B0380E491E002
:1047D00090937A03809379030DE110E0B4EFEB2E10
:1047E000B2E0FB2E68C295E0E91695E1F90609F4FE
:1047F000B9C1E1E1EE16E5E1FE0609F056C283E03B
:1048000090E0909392038093910380EE91E09093D7
:104810007C0380937B0380E491E090937A03809300
:10482000790303E010E07DE7E72E73E0F72E43C243
:10483000F1E8EF16F5E1FF0609F4DFC198F466E24E
:10484000E61665E1F60609F030C283E194E0909344
:104850009203809391030CE010E05BE6E52E53E0B9
:10486000F52E29C272E0E71676E1F70609F4AFC12A
:1048700083E5E81680E2F80609F017C287E194E1C3
:10488000B1C193E8E91697E7F90609F447C108F0C2
:104890004BC0F8E0EF16F4E5FF0609F463C1F8F445
:1048A00060E1E61663E5F60609F0FFC183E19EE0EC
:1048B000909392038093910380EE91E090937C0318
:1048C00080937B0380E491E090937A038093790353
:1048D00002E010E049E6E42E43E0F42EECC179E07A
:1048E000E71678E6F70609F448C184E1E81688E699
:1048F000F80609F0DAC183E094E090939203809384
:10490000910380EE91E090937C0380937B0380E49D
:1049100091E090937A038093790303E010E036E608
:10492000E32E33E0F32EC7C193E9E91697E7F906C2
:1049300009F4A8C198F4F9E8EF16F7E7FF0609F0C3
:10494000B4C183E194E0909392038093910301E4D6
:1049500010E025E2E22E23E0F22EADC126E9E216B8
:1049600027E7F20609F465C161E3E61660E8F6069A
:1049700009F09BC183E194E19093920380939103AA
:1049800002E110E093E1E92E93E0F92E94C178E37F
:10499000E71673E9F70609F420C1C0F597E2E916B6
:1049A00093E9F90609F4FAC0E0F4F2E0EF16F3E94E
:1049B000FF0609F40FC140F460E9E616F60609F0B7
:1049C00074C183E194E1B7C070E2E71673E9F706BA
:1049D00009F4C8C085E2E81683E9F80609F4D0C0F6
:1049E00064C199E2E91693E9F90609F4F9C008F4FB
:1049F000C7C0F1E3EF16F3E9FF0609F4C4C025E3ED
:104A0000E21623E9F20609F4BEC04FC169E8E616D2
:104A100064E9F60608F042C077E8E71674E9F7069D
:104A200008F00AC181E8E81684E9F80609F4E8C04C
:104A3000B0F4E0E4EE1AE3E9FE0AF2E0EF16F10466
:104A400008F033C183E194E0909392038093910343
:104A500005E610E0EEE6EE2EE2E0FE2E2CC126E8A2
:104A6000E21624E9F20609F020C183E094E0909375
:104A700092038093910380EE91E090937C03809366
:104A80007B0380E491E090937A03809379030BE3B6
:104A900010E06EEEE62E61E0F62E0DC165E0E61642
:104AA00065EBF60609F4E1C048F481E1E8168CEA0A
:104AB000F80609F0FAC083E194E194C099E0E916A0
:104AC00095EBF90609F4DEC0E5E0EE16E5ECFE062E
:104AD00009F4CBC0EAC082E090E190939203809306
:104AE00091036CE970E080EC97E0C9C083E194E049
:104AF000909392038093910306E010E067E7E62E1F
:104B000063E0F62ED8C080E090E19093920380930A
:104B100091036CE970E084E297E0B1C082E091E13A
:104B2000909392038093910360E970E084E996E0AA
:104B3000A6C083E094E1909392038093910380EE6A
:104B400091E090937C0380937B0380E491E09093C9
:104B50007A038093790302E010E081E1E82E83E09C
:104B6000F82EA9C084E090E1909392038093910382
:104B700068ED70E08CEB95E082C082E091E105C0C9
:104B800080E091E102C080E090E1909392038093F5
:104B900091036CEC70E080EF94E071C083E094E0EE
:104BA000909392038093910380E991E090937C032A
:104BB00080937B0380EF90E090937A038093790356
:104BC0000EE110E0A6EDEA2EA2E0FA2E74C083E119
:104BD00095E008C083E094E005C083E194E002C062
:104BE00083E096E1909392038093910303E010E0B9
:104BF000F3EDEF2EF2E0FF2E5EC083E194E002C001
:104C000087E094E0909392038093910380EE91E08B
:104C100090937C0380937B0380E491E090937A03EC
:104C20008093790305E410E079E2E72E72E0F72E35
:104C300042C083E094E002C083E194E09093920349
:104C40008093910380EE91E090937C0380937B03AB
:104C500080E491E090937A03809379030BE210E073
:104C600053ECE52E51E0F52E26C088E090E19093BC
:104C700092038093910360EB70E080E494E00E94E3
:104C8000AA1417C080E090E190939203809391035F
:104C900060EC70E080E893E00E94AA1480E991E063
:104CA00090937C0380937B0304C010927A0310924C
:104CB0007903E12CF12C20919203822F82958F7041
:104CC00090E0817099279093960380939503E11467
:104CD000F10481F069E070E08AEB91E00E94CE146B
:104CE000B801C7010E94CE1466E070E084EB91E049
:104CF0000E94CE1460E085E793E00E94990D60E089
:104D000085E793E00E94C8108091930390919403EB
:104D10008838944909F05AC21092D00220EE3FEF31
:104D200040E050E060E070E085E793E00E945E0DB7
:104D3000E0909F03F090A0038091D102811107C001
:104D40008091910380FF03C04EE2E42EF12C00E03D
:104D500010E020E030E040E050E060E070E085E707
:104D600093E00E941A158091910380FD10C060E0CD
:104D700070E080919B0390919C030E946B0C60E01B
:104D800070E080919D0390919E030E946B0C8B9824
:104D90008A9880910201877880930201A5988EB14C
:104DA000877C8EB9409102018F2D99279C01237039
:104DB000332755E0220F331F5A95E1F7242B209318
:104DC00002014EB19C012C703327220F331F220F9A
:104DD000331F242B2EB944B39C0120713327220F9B
:104DE000331F242B24BB4EB19C01207233273595F1
:104DF000279535952795242B2EB920910201807C8B
:104E00009927F3E095958795FA95E1F7822B8093A2
:104E100002018998899A8091020187788093020122
:104E2000A5988EB1877C8EB920910201C70183704D
:104E30009927A5E0880F991FAA95E1F7822B809307
:104E400002012EB1C7018C709927880F991F880F16
:104E5000991F822B8EB924B3C70180719927880FBF
:104E6000991F822B84BB2EB1C7018072992795951B
:104E7000879595958795822B8EB920910201C70160
:104E8000807C992733E0959587953A95E1F7822BB9
:104E9000809302018998899A8A9A80910101877882
:104EA000809301019D988DB1877C8DB940919103CC
:104EB00050919203809193039091940346FD1EC0FC
:104EC000889A889888988898209100012CB122B3FC
:104ED0002CB120910001889A40FD10C0893822E150
:104EE000920761F0889A88988898889820910001A4
:104EF0002CB122B32CB120910001889A81319541C7
:104F000061F4889A889888988898809100018CB17B
:104F100082B38CB180910001889AFA01E470FF2776
:104F2000889A88988898889844FF8CC0609100017E
:104F30008CB192B37CB1309100016076262F22951E
:104F400026952770807386958695682F622B9072C0
:104F5000892F90E095958795862B672F6870660F4F
:104F6000660F862B632F687198E0699FB00111244A
:104F7000682B889A889A88988898889880910001E8
:104F80002CB192B37CB1A09100018076382F32957C
:104F900036953770207326952695822F832B907235
:104FA000292F30E035952795282B872F8870880F7B
:104FB000880F282B8A2F887178E0879F7001112431
:104FC000822F8E29889A889A8898889888987091D4
:104FD0000001ACB132B32CB1909100017076B72FC3
:104FE000B295B695B770A073A695A6957A2F7B2B30
:104FF0003072A32FB0E0B595A795A72B2870220F8C
:10500000220FA22B987178E0979F900111242A2BF0
:10501000889A8C7FEF2B59F0287F98E0899F700148
:105020001124F22A669566956695E62A7CC0687F0B
:10503000E8E08E9F70011124F62A26952695269584
:10504000E22A71C0D09000018CB192B3BCB1A091A2
:105050000001889A889A88988898889830910001E9
:105060002CB102B36CB1C09000013076E32EF12C6C
:1050700015E0F594E7941A95E1F7207330E0359543
:10508000279535952795E22AF32A007210E01595A9
:105090000795E02AF12A687070E0660F771F660FA7
:1050A000771F9701262B372B6C2D687178E0679F4F
:1050B00070011124E22AF32A889A2D2D2076322FAE
:1050C000329536953770807386958695282F232BD9
:1050D0009072892F90E095958795822BB870BB0FC1
:1050E000BB0F8B2B2A2F287198E0299F9001112448
:1050F000822BF82A43FF03C0FE24EF24FE24EF2B6B
:1051000091F09701207E3770C701892F99278695E6
:1051100086958695822B932BFE2CEE24FF0CFF0C9C
:10512000FF0CE82AF92A8091D002882399F0970190
:10513000207CC7018827947055E0969587955A95ED
:10514000E1F7EFE3EE22FF24F694E794E82AF92A48
:10515000E22AF32A889A8B9A8091010188678093CA
:1051600001019D9A8DB188638DB940FD14C00091F5
:105170007F03109180030150110920917D0330912C
:105180007E032150310940E050E060E070E085E7A7
:1051900093E00E941A15FFE1EF16FFEFFF06B1F44E
:1051A00086E08983AE014F5F5F4F61E08AE390E064
:1051B0000E94140B80919103909192038F7E9093A3
:1051C00092038093910381E08093D00262E085E7AF
:1051D00093E00E94990D60E070E085E793E00E9403
:1051E000871D6DE070E080E090E00E94F62E6C017B
:1051F000009751F0FC0110826FE97AE00E940D2BBC
:105200004CE0A42EB12C02C0A12CB12CE12CF12C2D
:1052100008E010E020EF30E041E450E06AE070E0A8
:1052200085E793E00E94C8158AE090E0909382039E
:105230008093810381E490E09093840380938303BF
:105240008FEF9FEF9093880380938703909386035B
:105250008093850381E080938903A501B60185E7EA
:1052600093E00E94481CC6010E946D2E30EE232E52
:1052700037E0332E60ED77E080E090E00E94CB20B5
:105280000E940E118823D1F18091BD038B30B0F1C3
:105290008D30A8F08551823088F56091B703709108
:1052A000B80376276727762780E090E00E94192BC5
:1052B0002DEC3CEC4CEC5DE30E947A2B1CC0609121
:1052C000B80370E080E090E00E941B2B2DEC3CECDA
:1052D0004CEC5DE30E947A2B6B017C016091B7037B
:1052E00070E080E090E00E941B2B9B01AC01C701A5
:1052F000B6010E94632C6B017C0106C0C12CD12C2D
:1053000020ECE22E2FE7F22E0E940E11882331F0BE
:1053100080E00E947E1B2B013C0106C0412C512CD9
:1053200090EC692E9FE7792E0E940E11882331F0B0
:1053300081E00E947E1B4B015C0106C0812C912CF8
:1053400080ECA82E8FE7B82EA7019601C701B60101
:105350000E94BB2D811110C0A3019201C301B201B3
:105360000E94BB2D811108C0A5019401C501B401A3
:105370000E94BB2D882339F082E692E00E945419E6
:105380000E944E1D77CF01E0A7019601C501B4012F
:105390000E9465196C837D838E839F8300E0A70143
:1053A0009601C301B2010E946519688779878A87CF
:1053B0009B8762E872E086ED92E00E94EE1E22E09A
:1053C000B701A60186ED92E00E94041E6DE872E02E
:1053D00086ED92E00E94EE1E61E972E086ED92E0B9
:1053E0000E94EE1E22E0B301A20186ED92E00E942F
:1053F000041E6FE972E086ED92E00E94EE1E22E04C
:10540000B501A40186ED92E00E94041E64EA72E0F8
:1054100086ED92E00E94EE1E69EA72E086ED92E06F
:105420000E94EE1E22E0488559856A857B8586EDBF
:1054300092E00E94041E6FE972E086ED92E00E9405
:10544000EE1E22E04C815D816E817F8186ED92E0CF
:105450000E94041E86EB92E00E945419C092B3038E
:10546000D092B403E092B503F092B6038092AF03FA
:105470009092B003A092B103B092B20360E070E0EA
:1054800085E793E00E94871D1092820310928103AA
:105490001092840310928303309288032092870332
:1054A000309286032092850382E08093890362E82C
:1054B00072E085E793E00E94EE1E4091B3035091A5
:1054C000B4036091B5037091B60322E085E793E0E1
:1054D0000E94041E85E793E00E94EA1E6AEB72E0D8
:1054E00085E793E00E94EE1E4091AF035091B00318
:1054F0006091B1037091B20322E085E793E00E94CE
:10550000041E66EB72E085E793E00E94EE1E85E7DD
:1055100093E00E94EA1E34CFE6EDF2E0138212829D
:1055200088EE93E0A0E0B0E084839583A683B78300
:105530008DE092E09183808385EC90E0958784876D
:1055400084EC90E09787868780EC90E0918B808B4D
:1055500081EC90E0938B828B82EC90E0958B848B36
:1055600086EC90E0978B868B118E128E138E148EA4
:10557000A7EBB3E086E115968C93159716968C935E
:105580001697E2E8F0E1E4911796EC931797ECE3B5
:10559000F0E1E4911896EC93189740E85EE360E040
:1055A00070E01D964D935D936D937C935097E3E768
:1055B000F3E01582148220EF30E03783268380E405
:1055C00091E0918780873387228795878487178A20
:1055D00017861686118A108A81E0868B2FEF3FEF9F
:1055E000358B248B338B228B808F118E138E128EF2
:1055F0008FE192E09383828311AE10AE17AA16AAB0
:1056000014AE15AE16AE17AE1092B3031092B403DB
:105610001092B5031092B6030895FB01DC010590CA
:105620000D920020E1F708950E94562B08F481E0C6
:105630000895E89409C097FB3EF490958095709585
:1056400061957F4F8F4F9F4F9923A9F0F92F96E9CE
:10565000BB279395F695879577956795B795F11143
:10566000F8CFFAF4BB0F11F460FF1BC06F5F7F4FE0
:105670008F4F9F4F16C0882311F096E911C07723F2
:1056800021F09EE8872F762F05C0662371F096E8FB
:10569000862F70E060E02AF09A95660F771F881FCA
:1056A000DAF7880F9695879597F90895990F00086E
:1056B000550FAA0BE0E8FEEF16161706E807F907E4
:1056C000C0F012161306E407F50798F0621B730B7F
:1056D000840B950B39F40A2661F0232B242B252B00
:1056E00021F408950A2609F4A140A6958FEF811DA3
:1056F000811D08950E948D2B0C94FE2B0E94F02B8F
:1057000038F00E94F72B20F0952311F00C94E72B32
:105710000C94ED2B11240C94322C0E940F2C70F35E
:10572000959FC1F3950F50E0551F629FF001729F46
:10573000BB27F00DB11D639FAA27F00DB11DAA1F55
:10574000649F6627B00DA11D661F829F2227B00DA2
:10575000A11D621F739FB00DA11D621F839FA00D2D
:10576000611D221F749F3327A00D611D231F849F7D
:10577000600D211D822F762F6A2F11249F575040D4
:105780009AF0F1F088234AF0EE0FFF1FBB1F661F4F
:10579000771F881F91505040A9F79E3F510580F018
:1057A0000C94E72B0C94322C5F3FE4F3983ED4F337
:1057B000869577956795B795F795E7959F5FC1F7BC
:1057C000FE2B880F911D9695879597F9089597F967
:1057D0009F6780E870E060E008959FEF80EC089597
:1057E00000240A94161617061806090608950024C0
:1057F0000A9412161306140605060895092E03943A
:10580000000C11F4882352F0BB0F40F4BF2B11F4AD
:1058100060FF04C06F5F7F4F8F4F9F4F089557FD0C
:105820009058440F551F59F05F3F71F04795880F0E
:1058300097FB991F61F09F3F79F0879508951216A5
:1058400013061406551FF2CF4695F1DF08C0161651
:1058500017061806991FF1CF869571056105089402
:105860000895E894BB2766277727CB0197F9089519
:10587000A1E21A2EAA1BBB1BFD010DC0AA1FBB1F54
:10588000EE1FFF1FA217B307E407F50720F0A21BC6
:10589000B30BE40BF50B661F771F881F991F1A9433
:1058A00069F760957095809590959B01AC01BD015D
:1058B000CF010895EE0FFF1F881F8BBF0790F69151
:1058C000E02D19945058BB27AA270E947A2C0C94DB
:1058D000FE2B0E94F02B38F00E94F72B20F039F4B9
:1058E0009F3F19F426F40C94ED2B0EF4E095E7FBA2
:1058F0000C94E72BE92F0E940F2C58F3BA1762077C
:1059000073078407950720F079F4A6F50C94312CE1
:105910000EF4E0950B2EBA2FA02D0B01B9019001CA
:105920000C01CA01A0011124FF27591B99F0593F0E
:1059300050F4503E68F11A16F040A22F232F342F56
:105940004427585FF3CF469537952795A795F040A4
:105950005395C9F77EF41F16BA0B620B730B840BB9
:10596000BAF09150A1F0FF0FBB1F661F771F881F71
:10597000C2F70EC0BA0F621F731F841F48F48795C9
:1059800077956795B795F7959E3F08F0B0CF9395BB
:10599000880F08F09927EE0F9795879508950E9434
:1059A000E32C0C94FE2B0E94F72B58F00E94F02B56
:1059B00040F029F45F3F29F00C94E72B51110C942F
:1059C000322C0C94ED2B0E940F2C68F39923B1F329
:1059D000552391F3951B550BBB27AA276217730715
:1059E000840738F09F5F5F4F220F331F441FAA1FA9
:1059F000A9F335D00E2E3AF0E0E832D09150504065
:105A0000E695001CCAF72BD0FE2F29D0660F771F12
:105A1000881FBB1F261737074807AB07B0E809F0F8
:105A2000BB0B802DBF01FF2793585F4F3AF09E3F7D
:105A3000510578F00C94E72B0C94322C5F3FE4F383
:105A4000983ED4F3869577956795B795F7959F5FC0
:105A5000C9F7880F911D9695879597F90895E1E00C
:105A6000660F771F881FBB1F621773078407BA076B
:105A700020F0621B730B840BBA0BEE1F88F7E095C6
:105A800008950E94172C88F09F5798F0B92F9927F6
:105A9000B751B0F0E1F0660F771F881F991F1AF019
:105AA000BA95C9F714C0B13091F00E94312CB1E021
:105AB00008950C94312C672F782F8827B85F39F020
:105AC000B93FCCF3869577956795B395D9F73EF4B2
:105AD00090958095709561957F4F8F4F9F4F08955A
